:400000000080002011000000890000008900000008B5044B1A6803F53F5302331A6000F03BF800BFFA46004010B5054C237833B9044B13B10448AFF300800123237010BD32
:400040007081FF1F0000000080040000084B10B51BB108480849AFF300800848036803B910BD074B002BFBD0BDE81040184700BF00000000800400007481FF1F0881FF1F69
:400080000000000062B6FEE708B500F0B9F903680C2B00D1FEE7FEE708B5104E104D16E029686B68AC68002204E051F8040B43F8040B0432A242F8D1E868002203E00021C0
:4000C00043F8041B04328242F9D11035013E002EE6D100F09BF9FFF7D5FFFEE701000000F004000008B5124A124B1A60124A136843F40073136000230AE0032B03D80F4AFE
:4001000052F8231000E00E490E4A42F8231001332F2BF2D90C4B1A780C4B1A70094A0C4B1A6000F0C9F800220A4B1A6008BD00BF0004FA050CED00E014ED00E0000000001C
:40014000890000000080FF1FBC7600400481FF1F08ED00E00081FF1FFEE700BFF0B40022174611E050F82760F3B226F0FF0608E001EB420511F812406D78A5550132013BC4
:40018000DBB2002BF4D101372A2FEBD9F0BC70470A4B1B78DBB203F00701094A11701B09013213700122074B1A70102203F643131A704422A3F21A231A707047CF01004950
:4001C0006E5800404D51004008B50A46002100F04EF908BD38B51A22284B1A801823284A1370BF2227490A8002310B7002310A80254A13700622254B1A705222A3F5807332
:400200001A70234B1B78DBB2224A13704FF4E262214B1A8041F25122023B1A80002419250CE01E4B1B7803F0010343EA440404F003044FF4F07000F0D3F8013D0DB1032C73
:40024000EFD115B90320FFF787FF154A4FF48073138007231370002312490B7048200231087013700532137002220F4B1A700F4A137843F00703137038BD00BF80400040D3
:4002800082400040844000408A400040004300400F010049A14600402242004025420040044000400640004001400040A243004008B500F0D1F808BD38B572B6364A1378D5
:4002C00043F00403137000240CE0344963001A1952000A4423445B00C8589188FFF774FF0134E4B2082CF0D900240BE02B49A3001A1952000A44906BD16B1022FFF7D8FF23
:400300000134E4B2002CF1D04FF090402449FFF725FF244A137843F0020313701032137843F002031370204C237843F040032370A2F58632513A137843F0100313701B4892
:400340001B490822FFF7B4FF1A481B490A22FFF7AFFF1A481A490822FFF7AAFF19481A490822FFF7A5FF194819490822FFF7A0FF184A137843F008031370174D01232B7047
:40038000FFF728FFC1232B70FFF702FF134821460E22FFF78DFF38BDE846004084040000AC00004803500140A0430040C2510040800E0048F0510040880E00481251004075
:4003C000940E0048325100409C0E004842510040A40E00482243004000480040B04300400230800803D000BF01380046FCD17047EFF3108072B6704780F31088704700BF10
:40040000014B1868704700BF6C81FF1F0E4B70B51E460E4C0025E41AA410A54204D056F8253098470135F8E700F050F8084B094C1E46E41AA4100025A54204D056F8253091
:4004400098470135F8E770BDD8040000D8040000D8040000E004000010B5431E0A44914204D011F8014B03F8014FF8E710BD03460244934202D003F8011BFAE77047000097
:4004800000000000004F0040240000510040100020510040100050510040200000000140001000140140000800400140000A004C014000021050014010000000005001401C
:4004C000700E00481000000043000000F8B500BFF8BC08BC9E4670474D000000E5000000F8B500BFF8BC08BC9E46704729000000000500000881FF1F680000002000000056
:40050000000000000000000000000000000000000000000000000000000000000000000000000000C8040000000000000000000000000000000000000000000000000000EF
:400540000000000000000000000000000000000000000000000000000000000000000000000000000C81FF1F000000000000000000000000000000000000000000000000D0
:40058000000000000000000000000000000000000000000000000000000000000000000000000000000000000000000000000000000000000000000000000000000000003B
:4005C00000000000000000000000000000000000000000000000000000000000000000000000000000000000000000000000000000000000000000000000000000000000FB
:4006000000000000000000000000000000000000000000000000000000000000000000000000000000000000000000000000000000000000000000000000000000000000BA
:40064000000000000000000000000000000000000000000000000000000000000000000000000000000000000000000000000000000000000000000000000000000000007A
:020000040003F7
:0200000480007A
:4000000001450040034F004003520040015A00400464004005650040600001403A010140590201404D0301403D040140460501404E0601405C070140400801404F09014073
:40004000590A0140400B0140490C01402F0D0140020F01403B1401403C15014041160140511701404D1801404F190140641A01404F1B0140064001400B4101400B4201402D
:400080000643014003440140064501400946014009470140124801400D490140044C0140064D014003500140015101407E020A3616362236181019407C409701806B817FDF
:4000C000856B8B38857F867F877F89728A0F0A030F0315031A031D012201260230013102340237013B803E113F014104460B480449FF4AFF4BFF4CEF4D554E704F48501C76
:400100005280540B580459045A0B5B045D095F0161086308650867086850690A6A406BA86CC06E406FA88A068E018F019103950196069902A602A701A801AE04AF06B002A0
:40014000B304B404B501B601B702BB80BE51BF10C104C6FCC7EDC83CC9FFCAFFCBFFCCEACD55CEF2CF48D01CD602D720D804D904DA08DB04DD09DF01E108E308E508E708DD
:40018000E850E90AEA40EBA8ECC0EE40EFA800300410058006010A080C0810A0154017141B221C081D021E02200221802201271A28022A402D802F1030083180320435081D
:4001C000371238803F404301470153805640571559405A025B206104622066806CA06D406F04734078017F0183208804C0C2C222C4ECCA50CCEACE18D081D60DD816DE11FD
:40020000E40410031402240327013201330136023E404031455C4640472E483B49FF4AFF4BFF4DA04F0150185608580459045A045B045D905F01604062806440654066805F
:4002400068406A506BA86C406D206E506FA8800183018401850189018D0191019201950199019D019E03A101A501A901AD01B202B401B701BE10BF40C021C55EC6C2C7045A
:40028000C81FC9FFCAFFCBFFCDA0CF01D018D201D804D904DA04DB0BDD90DF01E040E280E440E540E680E840EA50EBA8EC40ED20EE50EFA800020108088009020E901508AD
:4002C000180419081D401E102301260429812A102B202E0430203202334439413A043B104004414042014601470849844A404B404E804F0450405144522055115609580232
:400300005F80632A640167026B01780181218F0294809608970298829B089C019D4C9E819F01A001A201A317A410A620A840ABA0AC80AD02AF10C00CC239C420CA4FCC0F3A
:40034000CE0FD05CD611D81EDE01E208E8020101070209010D011304150119011D011E012101250129012D01310734013B035280580459045B045F01804082088302844015
:4003800086048701880189188C4190409220930494419501984199109C409D189E02A041A301A440A610A704A841AC41B103B23FB304B440B508B710BA0CBF45D201D40B0D
:4003C000D804D904DB04DF0101800302042A05840604080409080A010C120D480F081460151416021A081D081E04204021012658278029042A022B062D012F103062310805
:40040000324036943701389239963D203E043F015D205E8260206320660867046F017102920193059541960C975099209A089D019E949FC4A110A285A430A502A602A720DA
:40044000C0F0C2F1C4F0CACFCCFFCEEFD6B0D860E002E608001F041F0A040E021210141F1A011C1F201F2608281F2C1F361F3A80400649FF4AFF4BFF4C024D0C4EF8580433
:400480005A0D5F01624863A168F06AF06CF06EF08001810184018501880189018C018D019001910194019501980199019D019E02A001A101A401A501A801A901AC01AD0124
:4004C000B301B403BA30BB0CC006C50AC801C9FFCAFFCBFFCC03CD0CCED4D804D904DA0DDB04DF01E248E3A1E8F0EAF0ECF0EEF00004018203040416054006040708082432
:400500000A400B020C150D400F40118A120414201512160119201A081B101F80210429242B822C022F01301431423240330136023702385039083A014410450448104A08C9
:400540004C034E08682069406A216B557010712073527A087E088105824084228504860287808B208C048F029040918294B895419680975098849C109D019E929F44A20885
:40058000A432A602A732A880AF10B108B440C0FFC2FFC4FFCA0FCC0FCE0FD224DE24E008E204E408E601EC08000101010401050309030A010C010D0310011103140115015B
:4005C000180119031C011D03200121032401250128012B012C012D033102350136013E403F11580459045F01800981048504880889048A018C388D049020910892019401BB
:400600009504961099049D049E02A204A301A504A838AB02B007B10EB238B70FB982BA0EBF41D804D904DF0100420208038004200501061209820B200C800E040F90112026
:400640001302146015401710181019081A401D802040210123022512274029102A102BE02E032F1E314A3220331034403501362A39453A203B103C023D443E2460206208AC
:4006800063208010824884C4850187228B048E2090809150920E940495889705980299049D22A428A501AD10B020B140B204B480B540C0FBC2FDC4FACAF7CCFFCEFFE2800F
:4006C000E440E840EC2002B3044C06A308FF09220B140CF30D010E0C104F11101290136015771640184219771C08200C240428012C032D442F1A300F31703306347C35088B
:40070000368C37013AA25608580459045B045C225D905F0181088302860189048B028D0C910C93019A019F0CA30CA70CA90CB201B503B70CBE04BF10C041C106C202C403BA
:40074000C50EC60CC805C9FFCAFFCBFFCC62CDA0CEF0CF41D00CD418D604D804D904DA04DB04DC20DD22DF01E640E702E910EA30EB10ED10EE10EF12004001200280032031
:400780000484070108200A200B410F0811021202131418C01A0B1B201F04218022922310270A29402D202E012F2030283202368239883A083B103C403F12440245804608A6
:4007C00047094D204E014F48574058805F02614063026602670A86029302950899049D02A740C02FC24FC40FCAE8CC97CEBCD0F0D220D688D8B8E002010903400504070277
:4008000009200B1012011380154917B61D021F0425402601270929112B20300131C8353837073BA03E01580459045F0180808111832084148663881C8C2C8D048E408F0216
:40084000901C9109941C9502970499099A149B769C099D099E02A01CA120A310A440A620A709A802A909AA01AC1CAF40B070B280B307B408B540B607B738B820BA82BB88FC
:40088000BE14D804D904DB04DF0100480102030C09080A890F80102812821508184019041A091B201F01200921082250230825012682270429012A802B282F283108329222
:4008C0003680370A38813D023E1459015A026A166B0270687280C00FC21FC42FCA6FCCDFCEE9E208E440E802E020E404022105FF064208CC09CC0A330B330DAA0F55120864
:40090000168417481B801F01221028FF2B122CAA2E552F24330F34F035F0360F3E503F14580459045B045F0186088D0A8E428F05930896109702990F9A21A284A4CCA63363
:40094000A704A8FFA90CAB03ACAAAE55AF01B20FB6F0B70FBE44BF40D602D804D904DB04DF0101110310071209020A200D28114013221541172419501D041E0120142580FA
:4009800028012A102C012D102F203128324833203608372239583D4059545A0160146180620269586B2477808F80910192A0954898019A109B129F04A12AA202A804AD102D
:4009C000B010B484C0AEC26CC4FBCA7CCCEECE1ED60FD80FE690EA92EC01003F01010501061009010A040E020F02103F13041501162019011A011C3F1D01203F2101250170
:400A00002608283F29012C3F2F08343F350F3A203B3056025720580459045B045F0182088401850F88018B048D0A8E048F0592109401950C970398019C019F02A001A3018C
:400A4000A401A801AE02AF08B01FB10FBA03BF01D602D72CD804D904DB04DF010084010202040309040405420708086009040B400C020D080F5610141201130A1424150280
:400A80001609170118801A401B011C04220224082510280129012C822E082F083240330434603542370839683A103C803DA93E013F046080610462046402768081018402CD
:400AC0008C408E44910292219310948C964098A599429A019B129D059E909F08A002A126A540AD13AE04B580B601C0FFC2FFC4FFCAF9CCFACEFED811E204EA02EC080002AD
:400B00000101020404010501080809010A200C100E400F0110281101125014011501180319011A041D01200721012407250129012A782D01301832603407350138203A0A21
:400B40003E403F10580459045B045F0185068608880A8A148D198E158F06901391169204930994139517960C970899029D04A803A91FAA14AF01B110B20FB307B508B6101D
:400B8000B920BA08BE40BF01D602D710D804D904DB04DC22DD20DF0100A80410050807420AA00D020E080F2012041512170819801A201C421D121E281F102004210423807D
:400BC0002708280229202C042D402F903080312032053440362A38883D803E255B80682869806C106D806F08708471207305801481018D088E028F0890809152920F9424BC
:400C0000958897259846990C9A209B409D32A208A310A428A509A622A788AD40AE02B710C0F7C27CC472CAFCCCFFCEFAD608E210E410EA02EE40040A06C4070C08C70A306C
:400C40000D800E200F131003126C1404152C16A3174319711B061E18240426402B082C052D712F0E30E03130330F35C0361F39223A223B083F014024410145E047BC48326D
:400C800049FF4AFF4BFF4EF04F44500C54015604580459045A045B045C225D225F0166C06A406B028009821685018A528C528E2991019429965698019A069E04A229A901CA
:400CC000AA7BAD01B060B204B418B603B701B808B980BAA2BE04BF40C005C704C9FFCA07CBFFCC40CD20CEF0CF05D008D804D904DA04DD02DF01E040E1A8E240E32000A8E6
:400D0000045005010AA10C080E26100211081510170219201A811B011C101D011E061F02202C21082340270228122A042B052C082F02310832103320360138043A803E0443
:400D400040024280432049024F405002520454405504568057045810598660808A019040911092209410968099849C809D229E049F02A210A454AA20AD40B001B310B48099
:400D8000B508B780C0D7C2EDC455CA3CCC86CE4AD00DD210D60FD801E680EAB00F40338134803608C220CCF0860899109C809F01A608A780A910AF40E210EC40EE201110A3
:400DC0001220150487A099109C809F01A780C470E040E61099109C809F21AA20AD14ECD083018B10E00485048C049322A040AC40E402050430208420900493229508A04099
:400E0000C004CC0809080D04900493229508A040B504C20CEA08052023202708670868016E20852099109C809F28AF09C080C860D880DAC0E440E810EA405E0161107102F0
:400E40008A018D029910B001B210B304B480D680D840DC8090049322A040AD083B223C8490049322A040CE0F10051A011C0500AF0501000000000000010101000501010076
:400E800000020200020000004000280000000000C0000000000B0B0000000000005050005000000020000000000001000000000000000000000000000000000000000000DD
:400EC00000000000000000000000000000000000000000000000000000000000000000000000000000000000000000000000000000000000000000000000000000000000F2
:400F000000000000000000000000000000000000000000000000000000000000000000000000000000000000000000000000000000000000000000000000000000000000B1
:400F40000000000000000000000000000000000000000000000000000000000000000000000000000000000000000000000000000000000000000000000000000000000071
:400F80000000000000000000000000000000000000000000000000000000000000000000000000000000000000000000000000000000000000000000000000000000000031
:0200000490006A
:0400000000004005B7
:0200000490105A
:04000000BC90ACAF55
:0200000490303A
:02000000029567
:0200000490402A
:4000000000000000000000000000000000000000000000000000000000000000000000000000000000000000000000000000000000000000000000000000000000000000C0
:400040000000000000000000000000000000000000000000000000000000000000000000000000000000000000000000000000000000000000000000000000000000000080
:400080000000000000000000000000000000000000000000000000000000000000000000000000000000000000000000000000000000000000000000000000000000000040
:4000C0000000000000000000000000000000000000000000000000000000000000000000000000000000000000000000000000000000000000000000000000000000000000
:0200000490501A
:0C00000000012E12306900012E1832FEA3
:00000001FF